:100000003CC000006BC0000069C0000067C0000079
:1000100065C0000063C0000061C000005FC0000058
:100020005DC000005BC0000059C0000057C0000068
:1000300055C0000053C0000051C000004FC0000078
:100040004DC00000B4C20000ACC20000B6C2000047
:1000500045C0000043C0000041C000003FC0000098
:100060003DC0000082C2000039C0000037C000005F
:1000700035C0000033C00000560311241FBECFEF6F
:10008000CDBFDFE3DEBF809140008093400081114F
:1000900005C098ED21E094BF209341008CBB14E390
:1000A000A0E0B4E3E0EEFCE002C005900D92A830C1
:1000B000B107D9F724E3A8E0B4E301C01D92A43B43
:1000C000B207E1F710E0CDE3D0E003C02197FE01D5
:1000D00099D5CC33D107D1F750D3A9C591CF9FB7CC
:1000E000F894E0919A0AF0919B0A8091960A2091E7
:1000F00008343091093440910A3450910B349FBF39
:1001000080FF08C0CF018827892B21F42F5F3F4F44
:100110004F4F5F4F0F01169407941694079416944F
:100120000794F0011694079416940794E019F109C6
:10013000169407940694102C16941694011816948D
:100140001694010C1124E00DF11DA8EEB3E050D57A
:100150006E0F7F1F811D911D08952FB7F894609138
:1001600008347091093480910A3490910B342FBF78
:1001700008954F925F926F927F928F929F92AF926B
:10018000BF92CF92DF92EF92FF92E7DF6B017C018B
:10019000A6DF30E020E050E026013701022E04C047
:1001A00076946794579447940A94D2F74B015C0174
:1001B000022E04C0B694A794979487940A94D2F719
:1001C000442D48255427285F3F4F2032310521F721
:1001D0005093A134852FFF90EF90DF90CF90BF9088
:1001E000AF909F908F907F906F905F904F90089509
:1001F000AF92BF92CF92DF92EF92FF920F931F9335
:10020000CF93DF936C017B018B01040F151FEB0172
:100210005E01AE18BF08C017D10759F06991D60129
:10022000ED91FC910190F081E02DC6010995892B9B
:1002300079F7C501DF91CF911F910F91FF90EF905A
:10024000DF90CF90BF90AF900895FC015785408913
:10025000252F30E0842F90E0821B930B541710F071
:10026000CF96089501970895FC0195858685981786
:1002700061F0A685AE0FBF2FB11D51968C9196856A
:100280009F5F9F73968790E008958FEF9FEF08958B
:10029000FC0195858685981731F08685E80FF11D5C
:1002A000818990E008958FEF9FEF0895FC01958577
:1002B0002685892F90E0805C9F4F821B91098F7368
:1002C00099270895FC010FB607FE04C08091110123
:1002D0008823A1F0A085B18514968C91149785FF91
:1002E0000DC097858089981307C015968C91159736
:1002F0008F7D15968C930895E8946CC108950F93A3
:100300001F93CF93DF93EC018C8581608C879F8551
:10031000888998130BC0E885F985848185FF06C01C
:100320008C8581FD0DC080E4848312C0062F1F855B
:100330001F5F1F738889811315C0CE01C3DFFACFF9
:1003400085818F77806490E49483E885F98585833F
:10035000E885F985628381E090E0DF91CF911F917C
:100360000F910895EF85EC0FFD2FF11DEF5AFF4F10
:1003700000831F878C85E885F98581FF09C0858109
:100380008F77806690E49483E885F9858583E3CF51
:1003900085818062FBCFCF93DF93EC018C8588232E
:1003A00059F0E885F985858185FD03C0848186FD46
:1003B00003C0CE0187DFF5CFDF91CF910895209163
:1003C000A23422952170E4EAF4E331E080E0A1E177
:1003D000919197FD37C0943018F59C5F40910006CD
:1003E0004423C1F140910A064770B9F590930C0679
:1003F000A0930A069091050690FFFCCF409110064D
:10040000509111066091120670911306559547950B
:100410005595479540FD24C0211124C0832B22C04F
:1004200048EF490F433010F49750D8CF963071F011
:10043000973071F09FEF40ED490F443078F24FEF65
:1004400052E8E8CF9F739D30B0F7C8CF9AE0C6CF8F
:100450009BE0C4CF49EF52E8DDCF4EEF52E8DACF50
:100460002111DCCF330F94E3EC3AF90709F0B0CF58
:1004700080939E3408958C30F0F490E0FC01EE5AA5
:10048000F34720812F3FB9F0FC01EA5BF347E0819D
:1004900030E2E39FF0011124FC5F613069F42183B5
:1004A000865C9347DC018C91E80FF11D80896130F7
:1004B00029F08860808B08952283F2CF877FFACF5E
:1004C000FC0101900020E9F73197AF01481B590B5F
:1004D000BC018CE094E38CCE8F929F92AF92BF923E
:1004E0000F931F93CF93DF93CDB7DEB7A197CDBF07
:1004F000DEBF19A2423008F44AE08E010F5D1F4FA3
:10050000842E912CB12CA12CA50194014FD3E62F60
:10051000B901CA01EA30D4F4E05DD801EE938D014F
:10052000232B242B252B81F790E080E0109711F0EE
:10053000CD01C6DFA196CDBFDEBFDF91CF911F9168
:100540000F91BF90AF909F908F900895E95CE5CF99
:10055000CF93DF934AE0C0DFEC0180E79CE8B0DF97
:100560008C0F9D1FDF91CF9108958F9381E0809331
:10057000960A8FB78F93EF93FF93E8E0F4E38081BF
:100580008F5F808381818F4F818382818F4F8283B0
:1005900083818F4F8383FF91EF918F918FBF8F91D5
:1005A0001895EF93FF93F898ECE0F4E30BC0EF930A
:1005B000FF93F898ECE0F4E333C0EF93FF93ECE0A3
:1005C000F4E35BC02F932FB72F938F939F93AF9339
:1005D000BF936894CF93DF9320E0C085D8E09089E3
:1005E000DF01A90FB21FAF5ABF4F8C9120E42C83BB
:1005F0008A839F5F9F738D812785291302C08F7D1A
:100600008D83908BDF91CF910EF078CEBF91AF911B
:100610009F918F912F912FBF2F91FF91EF9118955F
:100620002F932FB72F933F938F939F93CF93DF9366
:10063000C085D8E0898198818674880F3485382BED
:1006400082FD0DC0C58581E08C0F8F73268528172C
:1006500091F0CE0FDF2F20E0D21F998B8587348752
:10066000DF91CF919F918F913F912F912FBF2F912C
:10067000FF91EF9118953064F2CF8F938FB78F93DE
:100680009F93CF93DF93C085D8E09D8188818C8133
:1006900087FDFCCF9F7B90689D83DF91CF919F91D9
:1006A0008F918FBF8F91FF91EF91189510920E341B
:1006B00010920F3488EE93E0A0E0B0E08093103405
:1006C00090931134A0931234B093133482E69CE8D3
:1006D00080930C3490930D3480E098E08093143430
:1006E00090931534109216341092173410929D3452
:1006F00010929E3410929F341092A0341092A13424
:100700008091A2348F6080618093A2341092A434CF
:100710001092A5341092A6341092A7341092A834E7
:100720001092A9341092AA341092AB3480E094E372
:100730008093AC349093AD348FEF9FE38093AE34CD
:100740009093AF3480E29AE08093B0349093B134C8
:100750008AE89AE08093B2349093B3348091000A8F
:1007600080FD03C08F608093000A8091800A80FD25
:1007700003C081608093800A089588ED90E084BF73
:1007800090936100E0E0F6E083E081839FE0908752
:1007900091E2908390EA92839AE093871092E40525
:1007A00091E09093030A2EEF2093260A2093270AC4
:1007B0002BE02093000A2FE037E220939C0A30932D
:1007C0009D0A9093950A1092910A8093900A7894CA
:1007D0008091183480FF11C08CE094E3DCDDE0915F
:1007E0001434F09115341682158280EC8483809144
:1007F0001A3480931934109218341FB7F894E0918A
:100800001434F0911534168283E087838DE890E2EA
:1008100080879187148680E8858380EC8683909119
:100820001734C09116348091E2052CEFC11123EFEB
:100830008223292F30E040E0C11142E0B90102C01B
:10084000660F771F4A95E2F7862B8093E205933077
:1008500079F0C20FD32FD11DCC0FDD1FCC0FDD1FC0
:10086000CE5CD34761E0888106DE62E0898103DEE9
:100870001FBF8CE094E31ADD892BD9F3E0E0F4E3A9
:10088000A4EAB4E381918D9374E3E830F707D1F7DC
:100890008CE094E30BDD18161906D4F78CE094E392
:1008A000E3DCC82F83E79CE80BDE6C2FC1326CF5CC
:1008B00070E090E080E04AE00FDE80E79CE800DE38
:1008C000CA3059F10CDCEB018AE0C82ED12CE12CA6
:1008D000F12C05DC6C1B7D0B683E734030F0C114BD
:1008E000D104E104F10409F059C1C114D104E104B7
:1008F000F10479F78CE094E3D9DC181619060CF0B2
:10090000C7CF8CE094E3B0DCF5CF8CE094E3F7DC68
:1009100080E79CE8D5DDC337A9F683E89CE8D0DD05
:1009200080E79CE8CDDD19DC4B015C01C0E1D7E23A
:100930008091A23480FD43DD2197D1F70EDC6B015D
:100940007C0180E99CE8BCDDC701B6016819790922
:100950008A099B09FDDD01DC4B015C012091A23479
:10096000269521706091AC347091AD344091AE34D5
:100970005091AF3480E197E2222351F0FB0130E047
:100980004E175F0718F0A1913A27FACF30939F34A2
:10099000019791F7E2DB6B017C018FE99CE890DD28
:1009A000C701B601681979098A099B09D1DDD5DB30
:1009B0004B015C012091A23422FB222720F9E09117
:1009C000B034F091B134A091B234B091B33480E13D
:1009D00097E2222329F030814C9134273093A034C0
:1009E0000197B9F7BADB6B017C018DEA9CE868DD01
:1009F000C701B601681979098A099B09A9DDADDB30
:100A00004B015C01C0E1D7E28091A23483FDB1DBF0
:100A10002197D1F7A2DB6B017C018DEB9CE850DDC7
:100A2000C701B601681979098A099B0991DD95DB2F
:100A30006B017C01C0E1D7E28091A2348F71809379
:100A4000A2349091A3349E7F9093A33410E080FF52
:100A50001AC0B5DC182F9091A234892F8295869503
:100A600087702091A3348860382F3295330F307E01
:100A70009F71932B9093A2348695869586952E7FB1
:100A8000822B8093A3348091A23481FF12C0E09125
:100A9000AC34F091AD344091AE345091AF3490E02D
:100AA0004E175F0718F021919227FACF90939F3449
:100AB0001927982F9295969597702091A334322FED
:100AC0003170330F330F330F392B932F9460492F2D
:100AD0004295440F407E8F71842B8093A23496956B
:100AE000969596952E7F922B9093A33482FF1FC0EC
:100AF000A091B034B091B134E091B234F091B334FC
:100B00002C91408124272093A0341227232F266084
:100B1000322F3295330F307E8F71832B8093A23426
:100B20002695269526959E7F922B9093A3348091AF
:100B3000A23483FF20C01DDB18272091A234322F5E
:100B40003295369537709091A334892F8170880F34
:100B5000880F880F832B8160382F3295330F307EBA
:100B60002F71232B2093A2348695869586959E7FA0
:100B7000892B8093A33410939D34219709F05CCF87
:100B8000ECDA4B015C018CEC9CE89ADCC501B40109
:100B90006C197D098E099F09DBDC94CE81E0C81AAF
:100BA000D108E108F108C851DC4F93CEA1E21A2E1A
:100BB000AA1BBB1BFD010DC0AA1FBB1FEE1FFF1F01
:100BC000A217B307E407F50720F0A21BB30BE40B51
:100BD000F50B661F771F881F991F1A9469F7609598
:100BE0007095809590959B01AC01BD01CF01089552
:100BF0000FD0A59F900DB49F900DA49F800D911DC7
:100C000011240895EE0FFF1F0590F491E02D099433
:100C1000A29FB001B39FC001A39F700D811D11243D
:100C2000911DB29F700D811D1124911D0895F8949E
:020C3000FFCFF4
:100C32000504060708090A00040506070302010065
:100C42000102030000000000010101010000000098
:100C52001020408008040201020408010000000084
:100C62007F01F8002501CB015601340148010D0A2C
:100C720000497075742064657465637465643A2014
:100C820000457865637574696E672E2E2E00526179
:100C92006E616C6F672054696D653A200052616D18
:100CA200646F6D2054696D653A200052616E636C09
:100CB2006F636B2054696D653A20005261696E70F2
:100CC20075742054696D653A2000416C6D6F7374C0
:0E0CD20052616E646F6D2054696D653A2000AA
:080CE000010203060708090ADE
:00000001FF
